:100000000C94E2020C9429030C9429030C94290308
:100010000C9429030C9429030C9429030C942903B0
:100020000C9429030C9429030C9422260C94F42696
:100030000C94C41C0C9429030C9429030C942903DC
:100040000C9429030C9429030C9429030C94290380
:100050000C9429030C942C1D0C9429030C94290353
:100060000C9429030C9429030C9429030C94290360
:100070000C9429030C9429030C9429030C94290350
:100080000C9429030C9429030C9429030C94290340
:100090000C9429030C9429030C9429030C94290330
:1000A0000C9429030C9429030C9429030C040E04CA
:1000B0001904100412041404160418041B041D046B
:1000C0001F042A04210423042504270429042C04E2
:1000D000D212D212041304135C145C145C145C146A
:1000E00044135C14DD13DD134C145C145C145514C0
:1000F000EA13EA13EA13EA13EA13EA13EA13EA1318
:10010000EA13EA13EA13EA13EA13EA13EA13EA1307
:10011000F91307140E1415141F14E114E114F31449
:10012000F314EA14F314F314F314E114E114EF14C8
:10013000F314F314EF146127882780288827802878
:10014000D427F72780284E285D2820002100220090
:1001500023001F0001531E002700C95CCA5C010078
:100160000100C35C0100C25C01000100010001004C
:100170000100010001000100010001000100010077
:100180000100010001000100010001000100010067
:100190000100010001000100010001000100010057
:1001A0000100010001000100010001000100010047
:1001B0000100010001000100010001000100010037
:1001C0000100010001000100010001000100010027
:1001D0000100010001000100010001000100010017
:1001E0000100010001000100010001000100010007
:1001F00001000100010001000100010001000100F7
:1002000001000100010001000100010001000100E6
:1002100001000100010001000100010001000100D6
:1002200001000100010001000100010001000100C6
:1002300001000100010001000100010001000100B6
:100240000100010001000100010000047F3F1F6464
:100250003214643214783C1E1E140A05222325260B
:1002600028292A2C2D2F3032333536383A3B3D3E63
:100270004042434547494A4C4E5051535557595AAD
:100280005C5E6062646668696B6D6F7173757779C7
:100290007B7D7F81838587898A8C8E9092949698C6
:1002A0009A9C9E9FA1A3A5A7A8AAACAEAFB1B3B4D8
:1002B000B6B8B9BBBCBEBFC1C2C3C5C6C7C9CACB2D
:1002C000CCCDCED0D1D2D2D3D4D5D6D7D7D8D9D9F8
:1002D000DADADBDBDBDCDCDCDCDCDDDDDDDDDCDC61
:1002E000DCDCDCDBDBDBDADAD9D9D8D7D7D6D5D47E
:1002F000D3D2D2D1D0CECDCCCBCAC9C7C6C5C3C24A
:10030000C1BFBEBCBBB9B8B6B4B3B1AFAEACAAA89E
:10031000A7A5A3A19F9E9C9A98969492908E8C8A52
:1003200089878583817F7D7B79777573716F6D6B2D
:100330006968666462605E5C5A5957555351504E05
:100340004C4A4947454342403E3D3B3A38363533B7
:1003500032302F2D2C2A292826252322FFAA7F552B
:100360004000000000000000000000010101010148
:10037000010101010202020202020202030303035D
:100380000303030404040404050505050506060625
:10039000060607070707080808080909090A0A0ADC
:1003A0000B0B0B0C0C0C0D0D0D0E0E0E0F0F101079
:1003B00010111112121313141415151616171718FD
:1003C0001819191A1A1B1C1C1D1D1E1F1F20212164
:1003D00022232324252526272828292A2B2C2C2DA7
:1003E0002E2F30313132333435363738393A3B3CC1
:1003F0003D3E3F404142434445464748494B4C4DB2
:100400004E4F50525354555758595A5C5D5E606177
:1004100063646567686A6B6C6E6F71727476777906
:100420007A7C7D7F8182848687898B8D8E90929461
:100430009597999B9D9FA1A2A4A6A8AAACAEB0B285
:10044000B4B6B9BBBDBFC1C3C5C8CACCCED0D3D565
:10045000D7DADCDEE1E3E6E8EAEDEFF2F4F7F9FC07
:10046000FF04033000000012036B00650079006296
:10047000006F006100720064000000160371006DDF
:10048000006B006200750069006C0064006500721A
:100490000000000403090409029F00040100A0FAFF
:1004A00009040000010301010009211101000122DA
:1004B00040000705810308000A0904010001030048
:1004C0000000092111010001223B000705820320E1
:1004D000000A080B020201010000090402000001E9
:1004E00001000009240100010900010309040300BF
:1004F000020103000007240100014100062402015B
:100500000100062402020200092403010301020182
:10051000000924030204010101000905040240004E
:1005200005000005250101010905830240000500C1
:100530000005250101031201100100000008EDFE75
:10054000606001000102030105010906A1018505A2
:10055000050719E029E715002501950875018102B5
:100560000508190129059505750191029501750385
:1005700091010507190029EF1500250195F0750176
:100580008102C005010906A101050719E029E71547
:100590000025019508750181029501750881010505
:1005A00008190129059505750191029501750391B9
:1005B000010507190029FF150026FF00950675089B
:1005C0008100C00011241FBECFEFDAE0DEBFCDBF37
:1005D00004B603FE27C08091270390912803A091C1
:1005E0002903B0912A038730904BA740B04BD1F438
:1005F00010922703109228031092290310922A03C5
:1006000014BE84B7877F84BF0FB6F894A8958091F5
:100610006000886180936000109260000FBEE0E08F
:10062000F8E3099511E0A0E0B1E0E2E7F2E502C0ED
:1006300005900D92A436B107D9F723E0A4E6B1E006
:1006400001C01D92A732B207E1F70E94DC220C9490
:1006500037290C94000080E090E0089508950895F3
:1006600081E00895089581E008950C9430031F936C
:10067000CF93DF9300D000D01F92CDB7DEB7498370
:100680005A836B832091860189819A81211112C03E
:10069000662349F00E942F1A182F682F89819A81AA
:1006A0000E94DA1903C00E94041A182F69817A8106
:1006B000812F04C00E942F1A69817A810F900F90B8
:1006C0000F900F900F90DF91CF911F910C949A058E
:1006D000FC01408151816281738184810C943703D4
:1006E0000E94611B811102C00E94DB1B0C94100848
:1006F0000C9412080C9432030C947A0308950E940F
:10070000CF140E947E032FEF84E39CE021508040B1
:100710009040E1F700C000000C94521D0F931F930E
:10072000CF93DF938C010E946803EC01B8010E9413
:100730003503882309F4F7C1B801CE010E946F0F79
:10074000882309F4F0C1CA3CFCE5DF0741F4F80155
:100750008281882309F4E7C10E94C10BE4C1CB3C2C
:100760008CE5D80708F012C1C33C9CE5D90761F4B9
:10077000F8018281882309F4D6C10E94B01A8272DE
:10078000E1F00E94DC0DCFC1C43CECE5DE07C0F017
:10079000C63C9CE5D90709F4CAC008F0DCC0C43CDB
:1007A000FCE5DF0709F0CBC0F8018281882309F45A
:1007B000BAC10E94B01A827221F30E94CF0DB3C158
:1007C000C531FCE5DF0708F07BC0C2308CE5D807F7
:1007D00008F452C0F8018281882309F454C00E94B1
:1007E000611B811102C00E94DB1B0E94741B90E000
:1007F00090932C0280932B02FE01E350FC45E231E2
:10080000F10530F4EA5AFF4F80912B020C94DC285A
:1008100080912B02816027C0826025C0846023C044
:10082000806121C080621FC080641DC080681BC0C1
:100830008460886018C08E7F16C08D7F14C08B7F47
:1008400012C08F7E10C08F7D0EC08F7B0CC08F7743
:100850000AC08B7F877F07C087FB222720F991E0A2
:10086000922790FB87F980932B0280912B020E94A4
:10087000781B0E94CF1457C1C1159CE5D90751F0D0
:10088000C130DC4579F0C801DF91CF911F910F9104
:100890000C943303F8018281882309F444C10E9437
:1008A0007F0341C1F8018281882309F43CC1809112
:1008B000F101982F909590FB80F98093F10133C15D
:1008C000C631FCE5DF0739F50E94B01A982FF80110
:1008D00082812091100130911101882379F09A7A58
:1008E00081E009F480E080936401911102C069E223
:1008F00001C065E3C9010E94431C0AC080916401E4
:10090000811102C069E201C065E3C9010E944E1C69
:100910000E94FE1A08C1C23CDC4509F0B4CFF801C0
:100920008281882309F4FFC00E94EA0DFCC0F8010F
:100930008281882309F4F7C00E94850BF4C0C53C6E
:10094000DC4509F0A0CFF8018281882309F4EBC0CF
:100950000E94780BE8C0F8018281C83CFCE5DF0703
:1009600031F4882309F4DFC00E94A30BDCC0C93C2A
:10097000DC4530F4882309F4D6C00E94940BD3C020
:10098000882309F4D0C00E94B20BCDC0C13DECE574
:10099000DE0791F4F8018281882309F4C4C00E9423
:1009A000F5098F3028F00E94F509843108F405CF4D
:1009B0008FE00E94DF0DB7C0C23DFCE5DF0708F005
:1009C0005AC0CD3C8CE5D80739F4F80182818823E0
:1009D00009F4A9C081E0EDCFCE3C9CE5D907C0F475
:1009E000CB3CECE5DE0741F4F8018281882309F471
:1009F0009AC00E94FD0997C0CC3CDC4509F043CF6A
:100A0000F8018281882309F48EC00E940E0A8BC0EF
:100A1000F8018281CF3CFCE5DF0771F4882309F4FB
:100A200082C00E94F509863028F00E94F5098830BE
:100A300008F4C3CE86E0BDCFC03DDC4570F488230A
:100A400009F471C00E94F509823028F00E94F5096E
:100A5000853008F4B2CE82E0ACCF882309F463C0BD
:100A60000E94F509893028F00E94F5098E3008F4BB
:100A7000A4CE89E09ECFC53DECE5DE0739F4F80150
:100A80008281882309F44FC083E293CFC63DFCE501
:100A9000DF0740F5F8018281C33DFCE5DF0729F45B
:100AA000882309F440C088E184CFC43DDC4568F464
:100AB0008823C9F10E94F509853128F00E94F509C3
:100AC000873108F47ACE85E174CF882361F10E94E2
:100AD000F509893128F00E94F509823208F46DCEBB
:100AE00089E167CFCD3DECE5DE0741F4F801828175
:100AF0008823C9F082E00E949E2315C0CE3DFCE50C
:100B0000DF0739F4F8018281882369F00E94DB1B3A
:100B10000AC0CC3DDC4509F0B6CEF80182818823BD
:100B200011F080E0E8CF80E0DF91CF911F910F912D
:100B300008950895E72FF0E0E80FF11DE80FF11D8B
:100B4000EE0FFF1FEE0FFF1FE60FF11DEE0FFF1F51
:100B5000E65BFE4F859194910895880F991FFC01E3
:100B6000E65BFD4F859194910895CF93DF930E94AA
:100B70009A050E947107EC018115904508F041C06B
:100B8000C11580E4D80708F028C1C83ED10510F58A
:100B9000C03ED10508F0A1C1C83AD10578F4C53AE4
:100BA000D10508F0A2C0C130D10509F496C108F4FE
:100BB00047C1C430D10508F090C142C1CF3BD10537
:100BC00008F49EC0C03CD10508F43AC1CE01805C57
:100BD0009109F5C0C11590E2D90758F4C11521E07B
:100BE000D20708F07AC1C03FD10508F429C1D06509
:100BF00074C1C11580E3D80708F0E5C0CE019F702D
:100C0000DEC0C11595E5D90708F043C0C11524E53C
:100C1000D20708F0F9C0C11582E5D80708F5C1155B
:100C200091E5D90708F0DCC0CE0174E09695879570
:100C30007A95E1F783709C2F937021E030E002C039
:100C4000220F331F9A95E2F73C68382BCF70C69578
:100C5000C69580E2C89FE0011124C22BD32B3DC171
:100C60009E01237033278C2F86958695C115D34519
:100C700008F0BBC0C1E0D0E002C0CC0FDD1F2A9558
:100C8000E2F720E2829FC0011124C82BD92BDC6837
:100C900024C1C11529E5D207A0F4C11588E5D807FC
:100CA00008F0B7C0C11596E5D90708F0C9C08C2F68
:100CB0000E94ED078F71C82FD0E0DC2FCC27D062C7
:100CC0000CC1C1152AE5D20708F4A8C0CE01905680
:100CD0008115904208F0B4C08D2F8F710E94ED07EE
:100CE000DD27D0628F71D82BF8C0C53AD10509F441
:100CF000AAC0C63AD10509F0A9C0C2E8D0E4EDC047
:100D0000C83AD10509F4A5C0C93AD10509F4A4C06F
:100D1000CA3AD10509F4A3C0CB3AD10509F4A2C05F
:100D2000CC3AD10509F4A1C0CB3BD10509F4A0C050
:100D3000CC3BD10509F49FC0CD3AD10509F49EC042
:100D4000C03BD10509F49DC0CE3AD10509F49CC041
:100D5000CF3AD10509F49BC0C13BD10509F49AC033
:100D6000C23BD10509F499C0C33BD10509F498C031
:100D7000C43BD10509F497C0C53BD10509F496C021
:100D8000C63BD10509F495C0C73BD10509F494C011
:100D9000C83BD10509F493C0C93BD10509F492C001
:100DA000CD3BD10509F491C0CE3BD10509F490C0EB
:100DB000CA3BD10509F48FC0C0E0D4E48EC00E94C4
:100DC000AD05EC018AC0CE019927D3FF03C0EC0129
:100DD000D86C83C0EC01D06C80C0DF70D06A7DC05D
:100DE000DC2FCC27C16FD06A78C0C1E0D0E002C050
:100DF000CC0FDD1F2A95E2F720E2829FC00111246B
:100E0000C82BD92BDA6869C0DC2FCC27C46FD06A15
:100E100064C0DC2FCC27C06FD06A5FC08C2F8F706E
:100E20000E94ED0794E0D695C7959A95E1F7CF70AB
:100E3000D0E0DC2FCC27D06A8F70806EC82B4DC0DD
:100E4000C0E0D0E04AC0C1E8D0E447C0C3E8D0E485
:100E500044C0C2EED4E441C0C9EED4E43EC0CAEE00
:100E6000D4E43BC0C5EBD4E438C0C6EBD4E435C011
:100E7000C3EBD4E432C0C4EBD4E42FC0C7EBD4E45A
:100E80002CC0CCECD4E429C0CDECD4E426C0C3E81B
:100E9000D5E423C0CAE8D5E420C0C2E9D5E41DC02A
:100EA000C4E9D5E41AC0C1E2D6E417C0C3E2D6E46F
:100EB00014C0C4E2D6E411C0C5E2D6E40EC0C6E256
:100EC000D6E40BC0C7E2D6E408C0CFE6D4E405C040
:100ED000C0E7D4E402C0CAE2D6E4CE01DF91CF91EC
:100EE00008958238910549F1B0F48133910509F4F0
:100EF00059C048F48932910509F44FC08A329105EE
:100F000009F455C008958533910509F441C089332A
:100F1000910599F00895833E910531F138F4803EB2
:100F2000910591F0823E9105A9F00895863E9105C4
:100F300001F1873E910539F1089520912B0220FDA2
:100F40003BC021FD39C0089580912B0280FF34C041
:100F500089E341C080912B0282FF30C080912B0237
:100F600084FD2EC083EE37C080912B0282FD26C007
:100F7000F5CF80912B0283FF25C080912B0284FD49
:100F80001FC087EE28C080912B0283FD1BC0F5CFC8
:100F900080912B0285FD18C019C080912B0285FD20
:100FA00015C012C080912B0286FD12C013C0809123
:100FB0002B0286FD0FC00CC080EE0DC082EE0BC070
:100FC00080E009C086EE07C089E205C085E303C062
:100FD0008AE201C081E390E0089590912B0292FF94
:100FE0000DC0282F2871283019F4877F846006C02F
:100FF000282F2471243011F48B7F886093FF0DC05B
:10100000282F2871283119F4877E846106C0282F83
:101010002471243111F48B7E886194FD877E0895BC
:101020000C942E030C942F03E82FF0E0EB59FE4FA5
:10103000808108950895CF93DF9380988198A9E2E5
:10104000B1E04DE251E061E070E08D91E82FE29572
:10105000EF70F0E021A18F70EB0102C0CC0FDD1F1B
:101060008A95E2F7CE019C2F9095922391A392A1AD
:10107000892B82A34A175B0741F7109267011092F0
:101080006501109268011092660182E00E94DA0800
:10109000DF91CF910C9470035F926F927F928F9249
:1010A0009F92AF92BF92CF92DF92EF92FF920F93F7
:1010B0001F93CF93DF936DE271E0A7E6B1E029E6DD
:1010C000A22E21E0B22E612C01E010E06D015C90B7
:1010D0001C92EB018991BE01E82FE295EF70F0E0E0
:1010E00021A18F70A80102C0440F551F8A95E2F715
:1010F000CA01242B21A322A1942E9094292122A35A
:1011000050EA5A95F1F799E2E92E91E0F92E40E084
:1011100050E0E70189907E01282D22952F7030E064
:10112000E90128A17C9030E0D82DDF7002C0359510
:101130002795DA95E2F720FD08C0302F042E01C074
:10114000330F0A94EAF7232F01C020E027292C93BC
:101150004F5F5F4F44305105E1F691A1992291A272
:1011600092A1892B82A3119681E0F60190819511BD
:1011700001C080E0682AAA16BB0609F0A7CF262D79
:1011800042E065E671E087E691E00E94DB080E949C
:101190007803862DDF91CF911F910F91FF90EF90F3
:1011A000DF90CF90BF90AF909F908F907F906F9087
:1011B0005F9008950895FF920F931F93CF93DF934D
:1011C0008C01F62ED72FC42F222349F081E0809383
:1011D0006B010E94F61C90936A01809369018091D3
:1011E0006B018823C1F08091690190916A010E948E
:1011F000021D069780F0EF2DFD2FD8014C2F50E0F7
:10120000CD01801B910B841795071CF48D91819360
:10121000F7CF10926B01DF91CF911F910F91FF904B
:1012200008958DE292E00C94B51FCF92DF92EF9279
:10123000FF920F931F93CF93DF93362F472F282FC3
:10124000E82FF0E0711106C0EF59FC4F6491762F42
:10125000862F7BC0072F10E056E0659FC001112448
:10126000CFEFD0E0BE010E94B4285BEA5603C00174
:10127000579F900D1124830F911D830F911D982F5F
:10128000990F980F7E01E01AF10AEE9ED001EF9EB1
:10129000B00DFE9EB00D11248B2F499FA00111248B
:1012A000452F55277E01E41AF50AEE9EA001EF9E18
:1012B000500DFE9E500D11246E01C91AD108C09E1A
:1012C0007001C19EF00CD09EF00C11240F2D11273F
:1012D000C01BD10BCE9F8001CF9F100DDE9F100D44
:1012E00011246230710591F048F461157105E1F047
:1012F00061307105B1F49B2FE52F0AC06430710590
:1013000069F040F06630710579F00BC0912FEB2F3A
:10131000822F0DC0922FEB2F852F09C0922FE12F26
:1013200006C0952FE22F03C09B2FE22F812FF0E004
:10133000EF59FC4F7491E82FF0E0EF59FC4F6491A6
:10134000E92FF0E0EF59FC4F8491DF91CF911F918D
:101350000F91FF90EF90DF90CF9008950895CF9375
:10136000DF93762FE901682F842F0E941509798376
:1013700068838A83DF91CF91089580911602282F88
:10138000269530E02115310519F48170826005C081
:101390002532310524F08170886480931602089507
:1013A00088E090E00C94F728CF92DF92EF92FF92C2
:1013B0006B017C010E94BD09B701A60188E090E0A5
:1013C000FF90EF90DF90CF900C941529E6E1F2E0CA
:1013D00083E0808311828FEF828383831482608114
:1013E0007181828193810C94D4098091160280FFCF
:1013F00002C08695089580E0089580911A02833096
:1014000018F48F5F80931A02609116027091170290
:1014100080911802909119020C94D40980911A02BB
:10142000882319F0815080931A02609116027091FE
:10143000170280911802909119020C94D4096091BE
:10144000040170E08091160280FF0AC08091700153
:1014500023E0829FC0011124855E9D4F0C94F80EFD
:1014600080916F0190910301891780F7E82FF0E0D8
:101470009F01220F331FE20FF31FE55EFD4F118224
:10148000108212828F5FF0CF9091160290FF16C0EB
:1014900090916F0120910301921770F4E92FF0E011
:1014A000DF01AA0FBB1FEA0FFB1FE55EFD4F818323
:1014B000608342839F5FF0CF0C941F0A0895CF93FF
:1014C000DF9300D01F92CDB7DEB79091160290FF48
:1014D0000AC09E012F5F3F4F0E94AF094B81698177
:1014E0008A810E94440A0F900F900F90DF91CF9154
:1014F0000895CF93DF93EC01EC81F0E0E45AFD4FC7
:101500004491E6E1F2E0628181810E945F0A8C8170
:101510008F5F8C83DF91CF910895CF93DF93EC01A0
:10152000E6E1F2E0438162818C810E945F0A8C8156
:101530008F5F8C83DF91CF9108950F931F93CF938B
:10154000DF9300D01F92CDB7DEB78C0180916C0184
:1015500081110AC09E012F5F3F4F4FEF6FEF0E9436
:10156000AF098A8180936C01F8018481813051F048
:1015700028F0823061F440916C010AC080916C01C6
:1015800040E007C060916C0140E080E003C040E0B3
:1015900080E060E00E94440AF801848190E00196B6
:1015A00063E070E00E94C82884830F900F900F9032
:1015B000DF91CF911F910F910895AF92BF92CF927B
:1015C000DF92EF92FF920F931F93CF93DF9300D0A0
:1015D0001F92CDB7DEB7182FF62E042FE22E909172
:1015E000160290FF6DC0E92FE695AE2FB0E0A15D29
:1015F000BE4F8C91809378019E7F923061F49E0162
:101600002F5F3F4F812F0E94AF094B8169818A81F3
:101610000E94440A43C0823019F4009119023EC06E
:10162000863019F41091170239C08930D9F3893105
:10163000A9F5E9518E2F8170D82EE695F0E0E45A95
:10164000FC4FA590B490C12CBB2460910201C6163A
:1016500018F52C2D30E0A29EC001A39E900DB29EE5
:10166000900D112470E00E94B428812FD11002C087
:10167000860F01C0861B90916F01290F311DA901B2
:10168000440F551F240F351F255E3D4F402F6F2DF2
:101690000E94AF09C394D9CF0E941F0A109317026A
:1016A000F092180200931902EE2051F06091160298
:1016B0007091170280911802909119020E94D4092A
:1016C0000F900F900F90DF91CF911F910F91FF908E
:1016D000EF90DF90CF90BF90AF900895E6E1F2E0F9
:1016E0009181282F4381628188E0890F0C94DD0A63
:1016F00081E00C946E0BE6E1F2E09181282F4381AA
:10170000628188EF890F0C94DD0A81E00C947B0BD9
:10171000E6E1F2E0628128E0620F08F46FEF282F23
:10172000438181810C94DD0A81E00C94880BE6E111
:10173000F2E0628128E0621B08F460E0282F438118
:1017400081810C94DD0A81E00C94970BE6E1F2E0D4
:10175000438128E0420F08F44FEF282F62818181F6
:101760000C94DD0A81E00C94A60BE6E1F2E04381E3
:1017700028E0421B08F440E0282F628181810C940C
:10178000DD0A81E00C94B50B20E00C94DD0AFF9299
:101790000F931F93CF93DF93EC01F12C0FEF10E029
:1017A00060910201F616F0F480916F012F2D30E068
:1017B000280F311DC901880F991F280F391F255E79
:1017C0003D4F70E0C8010E94C828962F8C8140913F
:1017D000190260911802F99E800D11240E94AF0930
:1017E000F394DECF0E941F0A9A818C8190FF02C081
:1017F0008F5F01C081508C83DF91CF911F910F913A
:10180000FF900895BF92CF92DF92EF92FF920F93D5
:101810001F93CF93DF93FC01828180FF02C00FEF03
:1018200001C001E010E0809102011817E0F58091FD
:101830006F01C12ED12CE601C80FD11DCE01880F3A
:10184000991FC80FD91FC55EDD4F198218821A82F1
:1018500034E0E32EF12CB12C80916E018B0D87FFCB
:1018600003C090910201890F082E000C990BC81635
:10187000D90691F4809119028E9DA0018F9D500D83
:10188000112455954795559547959E0160911802ED
:10189000809117020E94AF09B00EF1E0EF1AF10833
:1018A000D9F61F5FC0CF0E941F0A80916E010130E0
:1018B00031F4811102C080910201815007C090E093
:1018C00001966091020170E00E94C82880936E0129
:1018D000DF91CF911F910F91FF90EF90DF90CF900C
:1018E000BF900895CF9380916F0190910301891764
:1018F00070F4E82FF0E09F01220F331FE20FF31F77
:10190000E55EFD4F1182108212828F5FF0CFC0E042
:1019100060910201C617C0F5EC2FF0E070E0CF0136
:101920000E94C82820916F01820F20916D01022E24
:10193000000C330B90E0E217F307CCF0209101018B
:10194000022E000C330B2E173F078CF09C01220F48
:10195000331F820F931F9C01255E3D4F409119025A
:1019600060911802809117020E94AF090BC0FC0120
:10197000EE0FFF1F8E0F9F1FFC01E55EFD4F1182D2
:1019800010821282CF5FC4CF0E941F0A20910001F3
:1019900080916D01820F80936D0190910101920FF2
:1019A0009093010119165CF4082E000C990B4091DC
:1019B000020150E041505109841795071CF0219510
:1019C00020930001CF9108950F931F93CF93DF933E
:1019D0008C01FC0184819581019681709927958302
:1019E0008483C0E0D5E580910201C81700F580919D
:1019F0006F012C2F30E0280F311DC901880F991F6E
:101A0000280F391F255E3D4F4C2F4695F8018481E4
:101A10009581840F911D8170409119026091180287
:101A20008D9F802D11240E94AF09CF5FDCCFDF9105
:101A3000CF911F910F910C941F0A0F931F93CF9377
:101A4000DF93EC0100E010E080910201282F30E0EC
:101A50000217130724F590916F019801290F311D8A
:101A6000A901440F551F240F351F255E3D4F869554
:101A700090E04C81081719071CF4442331F002C090
:101A8000411103C04091190201C040E06091180269
:101A9000809117020E94AF090F5F1F4FD5CF0E94A0
:101AA0001F0A8C8190E00196817099278C83DF91C9
:101AB000CF911F910F910895E6E1F2E080818E7F32
:101AC000808360817181828193810E94D409109208
:101AD00079012FEF80E792E0215080409040E1F7BC
:101AE00000C000000C941F0A60911602669570E019
:101AF0004BE050E085E091E00E94E228892B19F448
:101B000081E0809379010E94F61C9093720180938A
:101B1000710108959091160290FF35C09170811166
:101B200002C0926006C0853210F0986402C0880F2F
:101B3000982B90931602662351F0609116027091D3
:101B4000170280911802909119020E94D4096091A5
:101B50001602669570E04BE050E085E091E00E944F
:101B6000E228892B19F01092790102C00E94740DAD
:101B700081E0809374014091190260911802809174
:101B800017020C94C40B0895682F90911602969535
:101B900081E0890F853208F081E00C948A0D81E0A4
:101BA0000C94C40D682F9091160296958FEF890FB3
:101BB00009F484E20C948A0D81E00C94D20D61E06A
:101BC0000C948A0DE6E1F2E0808181608083869545
:101BD0000C94DF0D8091160280FD0C945C0D0C942A
:101BE000E20D60E00C948A0D80917701811133C081
:101BF0008091F10181608093F1010E94611B81114C
:101C000004C00E94DB1B0E94E6090E94D009609379
:101C100016027093170280931802909319026E7F38
:101C200061F40E94E6090E94D00960931602709345
:101C3000170280931802909319020E94BD09109216
:101C400079018091160280FF03C086950E94F10DF4
:101C500081E08093770108950F931F93CF93DF93D3
:101C600080917901882309F48CC080917801E091FA
:101C70001602E695E81BE0937301823049F4F0E028
:101C8000E85AFD4FE491CE2FD0E009E71AE049C0B1
:101C9000863049F4F0E0EB5AFD4FE491CE2FD0E0CE
:101CA0000DE81AE03EC0893051F4E695F0E0EE5AB6
:101CB000FD4FE491CE2FD0E007EC1BE032C08F3017
:101CC00051F4E695F0E0E15BFD4FE491CE2FD0E0DA
:101CD00002E01CE026C0853149F4F0E0E45BFD4FF2
:101CE000E491CE2FD0E002E71CE01BC0883181F0E8
:101CF000833239F4EAE4F2E0C591D4910DE91AE0B7
:101D000010C0843251F4C4EFD1E00DE11DE009C0F0
:101D1000C8EED3E004EE1CE004C0C0EDD7E00EEA4C
:101D200019E080917401882389F0109274010E9457
:101D3000F61C9E0120953095820F931F909372019F
:101D4000809371011092760110927501809171015A
:101D5000909172010E94021D8C179D0790F0E091F6
:101D60007101F0917201CE0FDF1FD0937201C09309
:101D7000710181E791E0F801DF91CF911F910F91FF
:101D80000994DF91CF911F910F91089521B3342FC2
:101D90003095232331B3432B3FB7F894FC01680FF0
:101DA000791FE617F70789F0819198E041BB0000A1
:101DB00000C087FF21BB880F000000C000C000C02A
:101DC00021BB00C09A9591F7ECCF3FBF089520B397
:101DD000242B20BB9B01220F331F620F731F0E9415
:101DE000C60E87EC90E00197F1F700C0000008955F
:101DF00040E40C94E70E0F931F93CF93DF93C62F0D
:101E0000D42F122FFC0182818823C9F060937C01BA
:101E10000E94F61C90937B0180937A0180E28C0FE4
:101E2000883008F057C0C77081E001C0880FCA959C
:101E3000EAF7DF91CF911F910F910C948F1280914F
:101E40007C01681330C080917A0190917B010E94DF
:101E5000021D883C910538F500E20D0FCD17B9F051
:101E600080E28C0F883040F4C77081E001C0880F99
:101E7000CA95EAF70E949612083028F581E09D2F56
:101E8000977001C0880F9A95EAF70E948F12812FF0
:101E90000E947C120830F0F4D77081E001C0880FF6
:101EA000DA95EAF70AC080E28C0F883098F4C770A0
:101EB00081E001C0880FCA95EAF7DF91CF911F91A9
:101EC0000F910C949612812FDF91CF911F910F915A
:101ED0000C947C12DF91CF911F910F9108959C017A
:101EE000CB01203F4CE53407F9F078F4283DFCE5C0
:101EF0003F07B9F0293D4CE5340711F1273D3C453A
:101F000031F526E241EE61EE1EC0223FFCE53F07BF
:101F100099F070F0233F3C45D1F427E245EE66EEA0
:101F200012C027E245EE0EC026E241EE60EE0BC085
:101F300027E245EE64EE07C026E241EE62EE03C002
:101F400028E241E065EE0E94FB0E80E00895FC016E
:101F50008281882319F010927C01089581E0089510
:101F600090938201809381010895E0918101F09125
:101F70008201309721F00190F081E02D099480E0FA
:101F80000895E0918101F0918201309799F02091BC
:101F90002801222359F020912B0227FF07C0DC01E2
:101FA0002C9111962C93119725E02C930280F381AC
:101FB000E02D0994089520917F0130918001281728
:101FC000390771F09093800180937F01E091810146
:101FD000F0918201309721F00680F781E02D09947D
:101FE000089520917D0130917E012817390771F005
:101FF00090937E0180937D01E0918101F0918201B7
:10200000309721F00084F185E02D0994089585B77B
:10201000806885BF85B7806885BF089508950C9452
:102020000E100C940F100C940E100C940E100E94B5
:1020300007100E9413100C94111081E008950E9463
:10204000ED1C0E941B080E94761D0E94F40D0C944A
:102050001510BF92CF92DF92EF92FF920F931F93D2
:10206000CF93DF93CDB7DEB72A970FB6F894DEBFD4
:102070000FBECDBF0E944C080E941D10811111C0DF
:102080008FEF89838A831B820E94F61C8160782FE0
:102090009D838C8349815A816B818D810E94D210EE
:1020A00054C084E8C82E81E0D82E00E010E0B02EA5
:1020B000802F0E941408E82EF60121916F01F82E5E
:1020C000F22631F40F5F1F4F02301105C9F2EFCF36
:1020D0008091F10181FD0E941A0880E090E02F2D8F
:1020E00030E0482FB901082E02C0759567950A9413
:1020F000E2F760FF25C08E83BF8281E090E06C0133
:1021000002C0CC0CDD1C4A95E2F72E2D30E02C21CC
:102110003D21232B09F480E088870E94F61C816012
:10212000782F9A8789874E815F8168858A850E948A
:10213000D210F801EC57FE4F80818C25808305C0BA
:1021400001968430910569F6BDCF0E9411090E9465
:10215000B50F909183018917A9F00E94B50F809364
:1021600083012A960FB6F894DEBF0FBECDBFDF9174
:10217000CF911F910F91FF90EF90DF90CF90BF9084
:102180000C947C032A960FB6F894DEBF0FBECDBF29
:10219000DF91CF911F910F91FF90EF90DF90CF9043
:1021A000BF900895CF93DF93CDB7DEB72B970FB6CF
:1021B000F894DEBF0FBECDBF4F83588769877A87FB
:1021C0008B87DE01119686E0FD0111928A95E9F771
:1021D00085E0FE01379601900D928A95E1F74981DD
:1021E0005A816B817C818D819E810E949F172B96E5
:1021F0000FB6F894DEBF0FBECDBFDF91CF9108952B
:10220000FC01808191810E94711A0895882309F44C
:1022100013C1682F8238C1F40E94B50F81FD0CC133
:1022200069E380911001909111010E94431C0E946A
:10223000FE1A2FEF81EE94E0215080409040E1F7AC
:1022400000C0000069E319C08338F9F40E94B50F9B
:1022500080FDF2C063E580911001909111010E9410
:10226000431C0E94FE1A2FEF81EE94E02150804023
:102270009040E1F700C0000063E58091100190916B
:1022800011010E944E1C0C94FE1A8438C1F40E9465
:10229000B50F82FDD1C067E48091100190911101CA
:1022A0000E94431C0E94FE1A2FEF81EE94E0215001
:1022B00080409040E1F700C0000067E4DECF8CEF83
:1022C000860F813A38F480911001909111010E949B
:1022D000431CD9CF80E2860F883048F4677081E0D4
:1022E00001C0880F6A95EAF70E94B31ACCCF8BE53C
:1022F000860F833070F4653A29F0663A31F083E84E
:1023000090E005C081E890E002C082E890E00C9483
:10231000DB0F88E5860F873108F08EC0683A09F434
:1023200045C0693A09F445C06A3A09F445C06B3AB8
:1023300009F445C06C3A09F445C06B3B09F445C04B
:102340006C3B09F445C06D3A09F445C0603B09F4A3
:1023500045C06E3A09F445C06F3A09F445C0613B87
:1023600009F445C0623B09F445C0633B09F445C02C
:10237000643B09F445C0653B09F445C0663B09F47C
:1023800045C0673B09F445C0683B09F445C0693B5B
:1023900009F445C06D3B09F445C06E3B09F445C0E6
:1023A0006A3B09F445C080E090E044C082EE90E0D2
:1023B00041C089EE90E03EC08AEE90E03BC085EBE4
:1023C00090E038C086EB90E035C083EB90E032C0FF
:1023D00084EB90E02FC087EB90E02CC08CEC90E079
:1023E00029C08DEC90E026C083E891E023C08AE804
:1023F00091E020C082E991E01DC084E991E01AC01B
:1024000081E292E017C083E292E014C084E292E09D
:1024100011C085E292E00EC086E292E00BC087E236
:1024200092E008C08FE690E005C080E790E002C02F
:102430008AE292E00C94F10F0895882309F45BC0BE
:10244000682F823879F40E94B50F81FF54C069E388
:1024500080911001909111010E94431C0E94FE1A6C
:1024600069E310C08338B1F40E94B50F80FF43C008
:1024700063E580911001909111010E94431C0E941C
:10248000FE1A63E580911001909111010E944E1C8B
:102490000C94FE1A843879F40E94B50F82FF2BC089
:1024A00067E480911001909111010E94431C0E94E9
:1024B000FE1A67E4E7CF8CEF860F813A18F380E2CB
:1024C000860F883048F4677081E001C0880F6A95F4
:1024D000EAF70E94B91ADCCF8BE5860F833020F42F
:1024E00080E090E00C94DB0F685A673120F480E0C4
:1024F00090E00C94F10F0895CF93C82F0E9406111D
:10250000C93349F42FEF83EC99E02150804090408B
:10251000E1F700C000008C2FCF910C941D1288238E
:1025200021F00E94B31A0C94FE1A0895882321F01A
:102530000E94B91A0C94FE1A08958F929F92AF923E
:10254000BF92DF92EF92FF920F931F93CF93DF938F
:102550007C01062FC72FFC01D581D295DF70128137
:1025600011110E94D01A0E94A91A882379F0112310
:1025700069F080E2800F883048F082E00E94481BBA
:102580000E94A91A91E0D82ED92601C0D12CBC2EC8
:10259000B2948FE0B8228B2D90E0FC01E859FF4FF8
:1025A0000C94DC288C2F807FCF70882311F0C2958B
:1025B000C07F112399F0CC2309F459C180E2800F28
:1025C000883010F0011104C08C2F0E94B31A03C090
:1025D0008C2F0E94C31A0E94FE1A49C1802F0E94AC
:1025E0001D12CC2309F468C180E2800F883010F0FE
:1025F000011104C08C2F0E94B91A03C08C2F0E94B5
:10260000C91A0E94FE1A58C18C2F807FCF70803269
:1026100011F0C295C07F002319F00130C9F022C02B
:10262000112371F0DD2341F0D13031F40E94E31A1F
:102630008C2B0E94EB1A40C10E94E31A8C2B1DC008
:10264000DD2319F0D13009F437C10E94F41A1AC001
:10265000112321F0D63008F02FC10EC0D53008F07C
:102660002BC110C0112361F0DD2331F0F70185810A
:1026700080FFFDC08F7085838C2F0E948F121CC13C
:10268000D11106C18C2FB2C08C2F837009F047C0C6
:1026900011111BC1202F229526952770220F220F82
:1026A000602F6F70862F90E0A0E0B0E04C015D01DC
:1026B000022E04C0880C991CAA1CBB1C0A94D2F7D9
:1026C00004FF10C08FE090E0A0E0B0E004C0880FED
:1026D000991FAA1FBB1F2A95D2F780959095A095A8
:1026E000B09503C080E090E0DC01C695C695C3704C
:1026F000BC01CD01682979298A299B29C23049F07A
:1027000058F4C13019F00E94F018DFC00E94DE18A2
:10271000DCC00E940219D9C00E94DC18D6C0112367
:1027200019F08C2F817001C08695882309F4CDC0E3
:10273000202F229526952770220F220F602F6F7071
:10274000862F90E0A0E0B0E04C015D01022E04C0B5
:10275000880C991CAA1CBB1C0A94D2F704FF10C059
:102760008FE090E0A0E0B0E004C0880F991FAA1F9E
:10277000BB1F2A95D2F780959095A095B09503C080
:1027800080E090E0DC01C695C695C370BC01CD0128
:10279000682979298A299B29C23049F058F4C13027
:1027A00019F00E94B51991C00E94A3198EC00E9411
:1027B000C7198BC00E94161988C0802F90E0FC01B9
:1027C000E05EF109E531F10508F04DC0E858FF4F32
:1027D0000C94DC280F708C2F8F71112321F00E9434
:1027E0003C19802F4ACF0E945D19802F0E949612BB
:1027F00063C0112341F0D53008F05EC08C2F8F717B
:102800000E94821959C0D63008F056C0F7CF112364
:1028100039F08C2F8F710E943C194EC01123C9F3DF
:102820008C2F8F710E945D1947C0112329F08C2FC6
:102830008F710E94271940C00E9422193DC01123A8
:1028400049F0CF718C2F0E943C1963E08C2F0E94BD
:10285000331B32C081E00E94481BD23068F182E015
:102860000E94481B29C0112331F0DD2391F2802FF3
:102870000E94061121C0DD2399F2093349F4FFEFCC
:1028800023EC89E0F15020408040E1F700C00000D7
:10289000802F0E941D1210C04C2F4F70602FC70157
:1028A0000E942B030E944D1814C04C2F4F70602FB4
:1028B000C7010E9499050DC098E0B91631F0B9160C
:1028C00040F086EF8B0D823020F40E94B50F0E94FD
:1028D0007C03DD20E1F00E94A51A80FD18C0F701FD
:1028E00012820E949F1A0E943C19C7010E949314F1
:1028F0000E949F1ADF91CF911F910F91FF90EF904F
:10290000DF90BF90AF909F908F900C945D19DF91F6
:10291000CF911F910F91FF90EF90DF90BF90AF90FC
:102920009F908F9008950F931F93CF93DF93EC01A7
:10293000988189812B813C81232B31F08F3F31F4A9
:1029400081E09F3F19F403C081E001C080E080FD79
:1029500013C0CE010E948E03882371F068817981B3
:102960008A810E947C1A8C010E94D9190E94CA187F
:10297000B801CE010E949D12DF91CF911F910F915E
:1029800008950E94D01A0E94E01A0C94FE1A8091B9
:102990001001909111010E94591C0C94C1140E94C5
:1029A000C01A0C94C714E92FE295EF704E2F50E037
:1029B000FA013297EE30F105B0F4E357FF4F0C9473
:1029C000DC28803F91F018F4803E68F40EC0843F0C
:1029D00051F40BC0803E48F0813F29F406C093FBC0
:1029E000882780F9089580E0089581E008950E9485
:1029F000711A0E94D3140895CF93DF9300D000D0B2
:102A00001F92CDB7DEB70F900F900F900F900F90E1
:102A1000DF91CF910895CF93DF9300D000D000D005
:102A2000CDB7DEB726960FB6F894DEBF0FBECDBF8A
:102A3000DF91CF9108951F93CF93DF93C0918701CA
:102A400016E080918801C81799F0D0E01C9FF00132
:102A50001D9FF00D1124E757FE4F40815181628187
:102A60007381848195810E940B152196C770E9CFEF
:102A7000DF91CF911F9108954091B9015091BA0112
:102A80006091BB017091BC018091BD019091BE012C
:102A90000C940B15CF938091BE0182958F7009F035
:102AA0005FC08091BB01882309F45AC080918701DF
:102AB000B09188017091B901A091BA014091BC0117
:102AC0005091BD0191E07F3F09F090E0692FC6E091
:102AD0008B1709F445C04115510521F0AF3F21F096
:102AE00020E003C021E001C0262F90E020FD35C08A
:102AF000C89FF001C99FF00D1124E757FE4F2181B7
:102B00002A132BC02081271328C02281211125C020
:102B1000238134812417350710F421503109241BF7
:102B2000350B283C3105C8F42091BE012F7020617F
:102B30002093BE0126E0289FF001299FF00D11246B
:102B4000E257FE4F80818F708061808389EB91E036
:102B50000E949314CF910C941B1501968770B8CFE7
:102B6000CF910895AF92BF92CF92DF92EF92FF92F2
:102B70000F931F93CF93DF93CDB7DEB761970FB657
:102B8000F894DEBF0FBECDBF8C0185E0F801DE01F9
:102B90001D9601900D928A95E1F7D8014C911196FE
:102BA0005C9111971296EC903091B9016091BA0145
:102BB0008091BC019091BD01009731F06F3F31F4DD
:102BC00021E03F3F19F403C021E001C020E0B22F13
:102BD000B170BB2E20FD60C1F801C380D480A090ED
:102BE000BB01AA2009F4EEC02091BE01C816D90687
:102BF00028F0D601A81BB90BCD0104C08095909593
:102C00008C0D9D1DFF24F394883C910580F0F12CE0
:102C1000207F09F09CC07C2DD98AC88A6E2D8989B5
:102C20000E94FC1489EB91E00E9493142DC1822F25
:102C3000807F09F054C0561314C0431312C0FE2CF9
:102C4000E1100FC02F7020612093BE010E943C153F
:102C500089EB91E00E9493148091BE01F801858375
:102C60005CC1CD2831F05F3F31F481E04F3F19F472
:102C700003C081E001C080E080FD03C081E08E25BB
:102C800002C080E090E0F82FF170FF2E80FF1CC0A2
:102C9000809187012091880136E0821709F41AC1DA
:102CA00090E0389FF001399FF00D1124E757FE4F57
:102CB0006181561306C06081461303C06281E6122B
:102CC00003C001968770E9CFFE2CEE2009F425C1E0
:102CD0008091BE0181608093BE01F12C1EC156130C
:102CE00009C0431307C0E11005C08091BE01F8017F
:102CF0008583A4C04D875E878D859E850E94F714CD
:102D0000882379F1EE2069F12091BE01822F82950E
:102D10008F7090E0029774F08091B9019091BA01A0
:102D200098878F831986DB86CA862C87CE01079603
:102D30000E94931486E0F801A9EBB1E001900D9296
:102D40008A95E1F70E944A150E943C150DC056175E
:102D500071F04D875E878D859E850E94F7148111E5
:102D60001AC0C8010E949314FF24F394D6C04313E1
:102D7000F0CFE110EECF8091BE01F8018583C8014C
:102D80000E94931486E0E9EBF1E0DF011D928A9541
:102D9000E9F7FA2CC2C0EE2021F32091BE01822F68
:102DA00082958F7090E002972CF28091B9019091FA
:102DB000BA019A8389831B82DD82CC822E83CE0165
:102DC0000196B6CFC816D90628F0F601E81BF90B14
:102DD000CF0104C0809590958C0D9D1D883C910578
:102DE00048F0F12C7C2DD98AC88A6E2D89890E94E1
:102DF000FC144AC0FE2CEE2009F4B3CF561333C0A6
:102E0000431331C02091BE0120FD24C0822F829542
:102E10008F70482F50E041155105E1F0D80115960B
:102E20002C9315974F30510549F08F5F982F92954D
:102E3000907F822F8F70892B15968C93C8010E94EA
:102E4000931486E0F801A9EBB1E001900D928A9508
:102E5000E1F73DC086E0F801A9EBB1E001900D92E9
:102E60008A95E1F75AC04D875E878D859E850E94C1
:102E7000F71481115FCF8091BE0181608093BE0104
:102E8000C8010E94931449C0E9EBF1E086E0DF013C
:102E90001D928A95E9F71BC0EE2009F462CF4D8799
:102EA0005E878D859E850E94F714F82E882309F48D
:102EB00058CF86E0F801A9EBB1E001900D928A9518
:102EC000E1F789EB91E00E9400110E944A150E94EF
:102ED0003C1523C04D875E878D859E850E94711AA3
:102EE000292F22952F70223028F49F7039F08111FC
:102EF00005C00BC0243028F49F7049F4805E8830F0
:102F000020F0C8010E949314BF2CFB2C06C0D801EE
:102F100015969C91907F91F7F8CF8F2D61960FB603
:102F2000F894DEBF0FBECDBFDF91CF911F910F91FF
:102F3000FF90EF90DF90CF90BF90AF9008951F93D8
:102F4000CF93DF93CDB7DEB72C970FB6F894DEBFE3
:102F50000FBECDBF4F83588769877A878B879C8741
:102F6000CE0107960E94B2158823D1F09F818885F3
:102F70002A853B85232B31F08F3F31F481E09F3F41
:102F800019F403C081E001C080E080FD47C04F819B
:102F9000588569857A858B859C850E940B153EC076
:102FA00086E0FE013796DE01119601900D928A951A
:102FB000E1F7FF81E8856A857B856115710531F050
:102FC000EF3F31F481E0FF3F19F403C081E001C01D
:102FD00080E080FD23C02091880130E0C901019686
:102FE000877099274091870150E084179507F1F188
:102FF000F983EA837D836C8396E0929FD001939F4F
:10300000B00D1124A757BE4FFE01319601900D92CD
:103010009A95E1F7809388010E941B1516E0809134
:10302000870190918801891771F1189FC0011124BF
:1030300087579E4F0E94B215882329F1E09187019E
:103040001E9FF0011124E757FE4F4081518162819C
:103050007381848195810E940B158091870190E096
:1030600001968770992780938701D9CF0E94CF144A
:103070001092880110928701E9EBF1E086E0DF0110
:103080001D928A95E9F72C960FB6F894DEBF0FBE15
:10309000CDBFDF91CF911F910895EF92FF920F93D3
:1030A0001F93CF93DF938C01892B09F46CC0F12C13
:1030B000EE24E394E8012196F8018491843740F4EA
:1030C000843008F051C0813081F0823019F15BC04A
:1030D000853709F444C0A8F19CE7980F903708F0B1
:1030E00052C08F770E941D1241C00E5F1F4FFE011C
:1030F000849190E2980F983050F48770FE2D01C0B3
:10310000FF0F8A95EAF78F2F0E94D31A14C00E94EE
:1031100006112DC00E5F1F4FFE01849190E2980FA3
:10312000983060F48770FE2D01C0FF0F8A95EAF792
:103130008F2F0E94D91A0E94FE1A19C00E941D12D8
:1031400016C00E5F1F4FFE01C491CC2381F08FE9A2
:103150009FE00197F1F700C00000C150F6CF0E5F6D
:103160001F4FFE01F49003C00E9406118E018F2DA7
:10317000882309F49FCFEFE9FFE03197F1F700C012
:1031800000008150F5CFDF91CF911F910F91FF90FB
:10319000EF900895089508950C94CB180C94CC18D2
:1031A0000E94CE186093C8017093C9018093CA0130
:1031B0009093CB010C94C1140C94D0180F931F93CF
:1031C0000091C8011091C9012091CA013091CB0131
:1031D000602B712B822B932B1F910F910C94D01885
:1031E0000F931F930091C8011091C9012091CA014A
:1031F0003091CB0160237123822393231F910F9180
:103200000C94D0180F931F930091C8011091C9011D
:103210002091CA013091CB01602771278227932723
:103220001F910F910C94D0180C94CB180E94141974
:103230006093C4017093C5018093C6019093C70148
:103240000C94C11460E070E0CB010C9416190F933C
:103250001F9341E050E060E070E08A019B0104C0F0
:10326000000F111F221F331F8A95D2F7C901B80121
:103270001F910F910C9416190F931F9341E050E08A
:1032800060E070E004C0440F551F661F771F8A95E9
:10329000D2F78091C4019091C501A091C601B0916F
:1032A000C7018A019B01082B192B2A2B3B2BC90133
:1032B000B8011F910F910C9416190F931F9341E0C1
:1032C00050E060E070E004C0440F551F661F771F98
:1032D0008A95D2F740955095609570958091C4017C
:1032E0009091C501A091C601B091C7018A019B01CF
:1032F000082319232A233B23C901B8011F910F91E9
:103300000C9416190F931F9341E050E060E070E0B9
:1033100004C0440F551F661F771F8A95D2F780910E
:10332000C4019091C501A091C601B091C7018A0165
:103330009B01082719272A273B27C901B8011F919C
:103340000F910C9416190F931F930091C4011091C3
:10335000C5012091C6013091C701602B712B822BD2
:10336000932B1F910F910C9416190F931F9300919B
:10337000C4011091C5012091C6013091C70160239D
:103380007123822393231F910F910C9416190F938D
:103390001F930091C4011091C5012091C601309185
:1033A000C70160277127822793271F910F910C94E3
:1033B00016190895990F990F890FE82FE695E6954C
:1033C000E695877051E001C0550F8A95EAF785E0D0
:1033D000E89FF0011124E154FE4F20E030E070E05E
:1033E0004081CB01022E02C0969587950A94E2F7A0
:1033F0008170819584278523842781932F5F3F4F98
:103400002530310569F70895990F990F890F682FB5
:10341000669566956695982F977085E0689FB001D0
:10342000112440E050E080E0FB01E40FF51FE1547F
:10343000FE4F208130E0092E02C0369527950A9470
:10344000E2F721703327042E01C0220F0A94EAF715
:10345000822B4F5F5F4F4530510531F70895BF9282
:10346000CF92DF92EF92FF920F931F93CF93DF9350
:103470008C01C090C401D090C501E090C601F090CD
:10348000C7018091C8019091C901A091CA01B09172
:10349000CB01C82AD92AEA2AFB2ACFE1D0E0D701FA
:1034A000C6010C2E04C0B695A795979587950A94EA
:1034B000D2F780FD04C0219790F7B12C07C0BC2E35
:1034C000B8018C2F0E94B5050197A9F38B2DDF91D0
:1034D000CF911F910F91FF90EF90DF90CF90BF9011
:1034E0000895CF93DF93EC010E942F1ABE010E9432
:1034F000B505DF91CF9108951F93CF93DF93EB0133
:1035000090918601992321F0CB010E94711A13C07A
:10351000882349F0CB010E942F1A182F682FCE0163
:103520000E94DA1904C0CB010E94041A182FBE01B0
:10353000812F0E94B505DF91CF911F910895809151
:10354000CC0185958595859508958091CC018770EE
:1035500008959091CC01977081E009F480E008957E
:103560008091F00108959091F001892B8093F001F2
:10357000089580959091F00189238093F00108953A
:103580001092F00108959091EF01892B8093EF0143
:10359000089580959091EF0189238093EF0108951C
:1035A0001092EF0108959091EE01892B8093EE0126
:1035B000089580959091EE0189238093EE010895FE
:1035C0001092EE0108958091CD01089508950C9414
:1035D000E61A0C94E71A9091CD01981721F0809388
:1035E000CD010C94E91A08958091CD01882329F02A
:1035F0001092CD0180E00C94E91A0895E091100139
:10360000F09111018091F0018083E0911001F0911F
:10361000110190818091EF01892B8083E09110014D
:10362000F091110190818091EE01892B808380912E
:10363000CD01882381F0E0911001F091110190817A
:10364000892B808380911001909111010E94DD1BD4
:1036500081110E94F41A80911001909111010C9433
:10366000C10F0C94E61A98E0899F90011124262B33
:103670002093CC010E943C198091CC0185958595C1
:1036800085950C94311B1092CC0180E00C94311B79
:103690002091CC01809582238093CC01982F977044
:1036A00079F430E0482F082E000C550B241735070D
:1036B00039F08595859585950E945D190C94431B7D
:1036C000089580E090E00E94FD2821E08D3E9E4F0D
:1036D00009F020E0822F089582E090E00C94EF281A
:1036E00083E090E00C94EF2884E090E00C94EF28C5
:1036F000682F84E090E00C940329AB01BC018FE0BB
:1037000090E00C941529AB01BC0183E190E00C948E
:10371000152960E070E0CB010C94831B60E070E041
:10372000CB010E947D1B0C94891B6DEE7EEF80E027
:1037300090E00E94212960E082E090E00E9403294D
:1037400060E083E090E00E9403291092C80110928B
:10375000C9011092CA011092CB0160E084E090E0B0
:103760000E94032960E085E090E00E94032960E068
:1037700086E090E00E9403296FEF87E090E00E94CE
:10378000032940E050E0BA0188E090E00E9415294A
:1037900060E08DE090E00E94032940E050E0BA0133
:1037A00088E190E00E94152960E087E190E00E94A6
:1037B00003290C948E1B0C94951BFC01329680916E
:1037C0002801882331F080912B0287FF02C09EE1FF
:1037D00001C096E080E0915028F021912223D9F396
:1037E0008F5FF9CF08959C01FC0132969FEF80E036
:1037F0004191461789F09F3F19F4411101C0982F5C
:103800008F5F8630A9F79F3F39F0F901E90FF11D6D
:1038100097FDFA956283089508959C012A5F3F4FB2
:10382000FC014281461301C0128201968217930760
:10383000B9F70895262F2695269526952E3168F4FA
:10384000FC01E20FF11D677021E030E001C0220FA2
:103850006A95EAF78281282B22830895262F2695E0
:10386000269526952E3170F4FC01E20FF11D67704C
:1038700021E030E001C0220F6A95EAF720958281AD
:1038800028232283089520912801222329F02091C2
:103890002B0227FD0C941A1C0C94F31B2091280179
:1038A000222329F020912B0227FD0C942E1C0C942E
:1038B0000D1C20912801FC013296222331F08091C9
:1038C0002B0287FF02C08EE101C086E0DF011D925E
:1038D0008A95E9F7089508950C946B1C0C946B1C61
:1038E0000E946E1C0E944C080E946C1C80E00E948A
:1038F0001408811108C081E00E94140891E0811130
:1039000003C090E001C091E0892F08950C946B1CD6
:103910000C94861C0E94881C80911E03843049F1FF
:103920001092F20120E488E190E00FB6F894A89597
:10393000809360000FBE2093600080E00E947C03B3
:103940000E94881C83B7817F846083BF83B78160B6
:1039500083BF7894889583B78E7F83BF0FB6F89422
:10396000A89580916000886180936000109260004B
:103970000FBE08950C946B1C0E94CF140E94B50FCB
:103980000E947C030C94BA1C1F920F920FB60F92E8
:1039900011248F939F93AF93BF938091F201811174
:1039A00013C08091270290912802A0912902B09122
:1039B0002A024196A11DB11D8093270290932802EF
:1039C000A0932902B0932A02BF91AF919F918F914A
:1039D0000F900FBE0F901F90189582E084BD93E06A
:1039E00095BD9AEF97BD80936E0008952FB7F89418
:1039F0008091270290912802A0912902B0912A0279
:103A00002FBF0895CF92DF92EF92FF920F931F93F3
:103A10002FB7F89440912702509128026091290213
:103A200070912A022FBF6A017B01EE24FF248C01D2
:103A300020E030E0C016D106E206F30610F4415053
:103A400051099A01281B390BC9011F910F91FF9051
:103A5000EF90DF90CF90089578941F920F920FB659
:103A60000F9211248F939F93AF93BF93809127025E
:103A700090912802A0912902B0912A020196A11DDD
:103A8000B11D8093270290932802A0932902B0933E
:103A90002A02BF91AF919F918F910F900FBE0F900F
:103AA0001F90189581E08093E00080E28093D80019
:103AB0001092C9008FE19EE40197F1F700C0000069
:103AC00087E090EBDC018093270390932803A09379
:103AD0002903B0932A039CE088E10FB6F894A895D7
:103AE000809360000FBE90936000FFCF0E94611B27
:103AF000811102C00E94DB1B0E946C1B8093F101AC
:103B00000E94741B90E090932C0280932B020E94E1
:103B1000701B682F70E080E090E00C94DC18881F28
:103B20008827881F089591E0883F08F490E0892F46
:103B30000895982F907F903BF1F038F49039D9F0A8
:103B4000903AC9F09038C9F416C0903D49F018F485
:103B5000903C31F012C0903E71F0903F19F00DC0D2
:103B600082E00895815F8F3040F4E82FF0E0EC5A56
:103B7000FE4F8081089583E0089580E00895FC0160
:103B8000738362830895FC01758F648F0895CF93CA
:103B9000DF93EC011DA21FA21EA2BC01685D7F4F36
:103BA00040EC88519F4F0E94EA1F1B821A821D829F
:103BB0001C821F821E82198618861B861A861D8605
:103BC0001C861F861E86198A188A1B8A1A8A1D8AD5
:103BD0001C8A1F8A1E8A198E188E1B8E1A8E1D8EA5
:103BE0001C8E1F8E1E8E19A218A2DF91CF910895F0
:103BF000EF92FF920F931F93CF93DF93EA018A0115
:103C0000060F111D88519F4F7C01C017D10729F065
:103C10006991C7010E94F11FF8CFDF91CF911F91E9
:103C20000F91FF90EF900895FC01718360830895D8
:103C3000FC0171A360A30895AF92BF92CF92DF926F
:103C4000EF92FF920F931F93CF93DF9300D01F92B9
:103C5000CDB7DEB77C016B01142FB22EA02EDC0194
:103C600095968C9195978430F1F45A96ED91FC914C
:103C70005B97309709F4BEC0CB01019763E070E019
:103C80000E94B428CB01880F991F860F971F498384
:103C9000BA820B834C2D481B9E012F5F3F4FBC0106
:103CA000C7010995B4C06230710509F452C0633090
:103CB000710529F06130710509F099C080C0842F29
:103CC000807F803AF9F058F48038B1F0803909F0FB
:103CD00091C0D7011496ED91FC9115972AC0803EB2
:103CE000B9F0803FD9F0803B09F084C0D70112962B
:103CF000ED91FC9113971DC0D7011696ED91FC91A3
:103D0000179717C0D7011896ED91FC91199711C01C
:103D1000D7011A96ED91FC911B970BC0423F09F019
:103D200069C0D7011C96ED91FC911D97309731F435
:103D300061C0309709F45EC0123F21F42A2D4B2D4B
:103D400062EF04C02A2D4B2D612F6F70C7010995BA
:103D50005EC0842F807F803D59F0803F79F0803CA9
:103D600009F048C0D7011E96ED91FC911F9718C02D
:103D7000D7015096ED91FC91519712C0433F31F419
:103D8000D7015296ED91FC91539707C0413F91F5B1
:103D9000D7015496ED91FC915597309739F42AC08C
:103DA000309741F1812F8D7F813F19F44B2D612F89
:103DB00003C04B2D612F6F70C701099528C0842F58
:103DC0000E94931D882331F0D7015696ED91FC9106
:103DD000579707C0163F71F4D7015896ED91FC91A3
:103DE0005997309739F0612FC701099510C0643099
:103DF0007105D8F4D7015C96ED91FC915D973097F1
:103E000031F00A2D2B2D412FB601C7010995D7019D
:103E10005E96ED91FC915F97309751F00A2D2B2D16
:103E2000412FB601C701099503C0C12CD12CE2CFA7
:103E30000F900F900F90DF91CF911F910F91FF90F6
:103E4000EF90DF90CF90BF90AF900895FF920F93C7
:103E50001F93CF93DF93EC01162F862F0E94931DA3
:103E6000882369F0FDA081E08DA300E020E0412FD0
:103E700061E070E0CE010E941C1EFDA270C0812F87
:103E80000E948F1D4DA1882309F440C0443029F0C1
:103E90001AA381E090E09FA38EA3812F0E94991D19
:103EA000813031F070F0823051F0833041F02AC01F
:103EB0008DA300E020E0412F61E070E01EC08DA3E3
:103EC0004EC0103FB1F0173FE9F42EA13FA1C90148
:103ED00063E070E00E94B428FE01E80FF91F12A30E
:103EE000B9016F5F7F4F7FA36EA30CA12BA14AA1E5
:103EF00004C084E08DA31AA329C0CE010E941C1E19
:103F00001DA22DC01DA21FA21EA229C0442339F14B
:103F10002EA13FA1C90163E070E00E94B428FE0118
:103F2000E80FF91F12A3B9016F5F7F4F7FA36EA344
:103F30008130910581F0029791F40CA12BA14AA147
:103F4000CE010E941C1E8DA1843049F081E090E0DA
:103F50009FA38EA304C0423011F400E0EFCFDF91A5
:103F6000CF911F910F91FF900895CF92DF92EF9222
:103F7000FF920F931F93CF93DF93EC01E8A1F9A178
:103F8000309709F009956E0188EEC80ED11CC60164
:103F90000E942120E12CF12C082F10E0E016F10600
:103FA00080F460E0C6010E943720682FCE010E9495
:103FB000261F61E0C6010E9448208FEFE81AF80A28
:103FC000EDCFDF91CF911F910F91FF90EF90DF9098
:103FD000CF900895FC014283748363831182108221
:103FE00008951F93CF93DF93EC01162F0E9460205A
:103FF000E82F298130E0C90101966A8170E00E94B2
:10400000C828488150E08417950729F48E2F0E9414
:10401000632080E012C08B819C81DC01A20FB31F62
:104020001C93898190E001966A8170E00E94C82803
:1040300089838E2F0E94632081E0DF91CF911F91B1
:1040400008950F931F93CF938C010E946020F80175
:10405000C1812081C21718F4F8019281C90FC21BD7
:104060000E9463208C2FCF911F910F910895FC0126
:104070002081862F90E0820F911D628170E00E9466
:10408000C8280380F481E02DE80FF91F808108958E
:104090001F93CF93DF93EC01162F0E946020282FEF
:1040A0003881812F90E0830F911D6A8170E00E941A
:1040B000C8288883822FDF91CF911F910C946320B1
:1040C0008FB7F89408958FBF0895089508950F93BA
:1040D0001F93CF93DF93CDB7DEB727970FB6F89432
:1040E000DEBF0FBECDBF8C01CE0101960E94B4226F
:1040F000882309F18A810E94991D9A819D839B8161
:104100009E839C819F8381110EC08981843041F000
:10411000873031F0863031F0853031F781E003C0EF
:1041200083E001C082E0AE014B5F5F4F682FC801A2
:104130000E94F81DD9CF27960FB6F894DEBF0FBEA8
:10414000CDBFDF91CF911F910F910895DF92EF9234
:10415000FF920F931F93CF93DF9300D000D0CDB782
:10416000DEB77B01142FD22E4A832B830C83842F3E
:104170000E94991D81111CC082E0E816F10471F0C3
:1041800083E0E816F10421F0EA94EF28C1F40CC0B2
:10419000073F11F487E006C084E004C087EFD8121F
:1041A000FBCF86E0898307C0173FB1F785E0FACFE0
:1041B00012951F701983CE0101960E94AF220F90B5
:1041C0000F900F900F90DF91CF911F910F91FF9063
:1041D000EF90DF9008958DE292E00E94C71D66EA9D
:1041E00070E28DE292E00E94141E67E670E28DE2BA
:1041F00092E00E94181E65E670E28DE292E00E9455
:10420000C31D66E670E28DE292E00C94BF1D209122
:104210001E032430D9F49B01FC0181818F708093AF
:10422000E90040E050E064E070E0C9010E94CB2367
:1042300081110FC09091E800892F807295FD08C010
:104240009091E8009E779093E800089582E00895A9
:1042500080E0089520911E032430A1F4FC018181A7
:104260008F708093E9002091F3008091F20090E03C
:10427000922B892B49F08091E8008E778093E8009B
:104280000C94742582E0089580E00895FC018091EB
:104290001E03843059F491819F709093E9008091BE
:1042A000E80080FF03C0CF010C942A2108952091DB
:1042B0001E03243011F080E00895FC0186818F7088
:1042C0008093E9008091E80082FFF5CF8091E800BB
:1042D00085FFF1CFCB0140E050E064E070E00E9448
:1042E00016248091E80085FD05C08091E8008B7759
:1042F0008093E80081E00895809113020895089565
:104300000895CF93DF93EC010E94AE23823011F029
:104310008430D9F580912801882339F080912B02CF
:1043200087FF03C060E282E002C068E081E0809322
:10433000E9008FEF9091E800815095FD06C095ED62
:104340009A95F1F700008111F5CF8091E80085FF83
:104350001CC080912801811105C040E050E068E058
:1043600070E003C070E040E050E0CE010E94CB233B
:104370008091E8008E778093E80080E2FE01A3EF51
:10438000B1E001900D928A95E1F7DF91CF91089508
:10439000089580911D03811109C00E94A7250E94E4
:1043A00004268091E20084608093E20008951092D8
:1043B0001D030895089508950C94BC1C42E061EC1F
:1043C00081E00E94202542E261EC82E00E942025EB
:1043D00042E361E883E00E94202542E360E884E054
:1043E0000C94202580912003833009F460C030F4C0
:1043F000813071F0823009F499C008958A3009F44F
:1044000085C08B3009F46BC0893009F0A7C020C08B
:1044100080911F03813A09F0A1C08091E800877F55
:104420008093E8008091230390912403892B21F449
:1044300060E283EF91E003C060E080E090E070E034
:104440000E9461248091E8008B778093E8000895B2
:1044500080911F03813209F081C0809123039091E4
:104460002403029708F07AC08091E800877F809348
:10447000E8008091E80082FD05C080911E03811153
:10448000F8CF6CC02091F3008091F20090E0922B65
:10449000029729F48091F1008B7F813021F4809183
:1044A000F100809313028091E8008B7753C08091D4
:1044B0001F03813A09F052C0809123039091240395
:1044C000892B09F04BC08091E800877F8093E8003A
:1044D0008091E80080FFFCCF8091280136C0809158
:1044E0001F038132D9F58091230390912403892BF6
:1044F000A9F58091E800877F8093E8000E94552508
:1045000080912103809328010C94CF1480911F0384
:10451000813221F58091E800877F8093E8000E9436
:1045200055258091220380931402089580911F03E2
:10453000813AA1F48091E800877F8093E800809120
:10454000E80080FFFCCF809114028093F1008091FD
:10455000E8008E778093E8000C9455250895BC01FF
:1045600082E191E00C940721BC0182E191E00C947E
:10457000572180E480937C00EBE7F0E0808180624B
:104580008083EAE7F0E087E0808380818068808331
:10459000089580917A00806480937A0080917A00F7
:1045A00086FDFCCF809178009091790023E096956C
:1045B00087952A95E1F708950F931F93CF93DF9383
:1045C00000D000D0CDB7DEB70E94EB208DE292E0A4
:1045D0000E94C71D0E94B92284B7877F84BF0FB68F
:1045E000F894A89580916000886180936000109293
:1045F00060000FBE80E880936100109261000E940D
:1046000017100E94A7250E9404268091E200846072
:104610008093E20078940E9499280E941F108EE1F6
:1046200091E00E94B00F01E010E180911E038530FF
:1046300069F40E948A1C80911C038823B1F30E94B4
:10464000701C882391F30E94B523EFCF19821A8240
:104650001B821C820A831B830E94C9228C83CE0189
:1046600001960E94AF220E94291082E191E00E94EF
:1046700046210E942C0ED9CF0C943E23292F33279C
:1046800023303105C9F060F42130310581F022304A
:10469000310509F04AC08FE990E027E934E049C0CC
:1046A0002132310511F12232310579F13EC082E12A
:1046B00090E026E335E03DC099278130910561F017
:1046C00040F08230910559F0039779F5E1E6F4E086
:1046D00008C0E3E9F4E005C0EBE7F4E002C0E7E678
:1046E000F4E0849190E09F0124C06115710541F0D0
:1046F00061307105D1F489E090E022EC34E019C01A
:1047000089E090E029EA34E014C06115710541F0B8
:104710006130710551F48BE390E028E435E009C085
:1047200080E490E023E835E004C080E090E020E001
:1047300030E0FA013183208308950895CF93C82F84
:104740000E949D23C0931502CF91089580911E036E
:10475000843011F081E0089582E00895809115027F
:10476000811102C00C94A623089580E189BD82E1E5
:1047700089BD09B400FEFDCF8091D8008F7D809364
:10478000D8008091E00082608093E0008091E0009A
:1047900081FDFCCF0895CF92DF92EF92FF920F93AD
:1047A0001F93CF93DF93EC018B017A010E94742554
:1047B000811133C0E114F10439F0F7018081918156
:1047C000081B190BC80FD91FC12CD12C01151105BD
:1047D00019F18091E80085FD16C08091E8008E7780
:1047E0008093E800E114F10449F0F70180819181A0
:1047F000C80ED91ED182C08285E00FC00E947425E8
:10480000882321F30AC089918093F1000150110996
:10481000FFEFCF1ADF0ADACF80E0DF91CF911F914F
:104820000F91FF90EF90DF90CF900895CF92DF929D
:10483000EF92FF920F931F93CF93DF93EC018B01C5
:104840007A010E947425811133C0E114F10439F01A
:10485000F70180819181081B190BC80FD91FC12C4A
:10486000D12C0115110519F18091E80085FD16C0C4
:104870008091E8008B778093E800E114F10449F01F
:10488000F70180819181C80ED91ED182C08285E056
:104890000FC00E947425882321F30AC08091F10083
:1048A000899301501109FFEFCF1ADF0ADACF80E0B8
:1048B000DF91CF911F910F91FF90EF90DF90CF90FC
:1048C000089520912503309126032617370748F0D5
:1048D0006115710539F42091E8002E772093E800E6
:1048E00001C0B901FC0120E06115710579F18091E9
:1048F0001E038823F1F18530F1F18091E80083FDFA
:104900003CC08091E80082FD2EC08091E80080FFCD
:10491000EBCF2091F3008091F20090E0922B611593
:10492000710551F08830910538F421912093F10000
:10493000615071090196F3CF21E0089709F020E05A
:104940008091E8008E778093E800CECF2111CFCF01
:104950000AC080911E03882361F0853061F0809148
:10496000E80083FD0AC08091E80082FFF2CF80E07A
:10497000089582E0089583E0089581E008952091EC
:104980002503309126032617370748F06115710576
:1049900039F42091E8002E772093E80001C0B90196
:1049A000FC0120E06115710591F180911E038823BF
:1049B00009F440C0853009F43FC08091E80083FDD0
:1049C0003DC08091E80082FD2FC08091E80080FF0B
:1049D000E9CF2091F3008091F20090E0922B6115D5
:1049E000710559F08830910540F424912093F1002D
:1049F0003196615071090196F2CF21E0089709F0D4
:104A000020E08091E8008E778093E800CBCF2111E1
:104A1000CCCF0AC080911E03882361F0853061F0FD
:104A20008091E80083FD0AC08091E80082FFF2CF08
:104A300080E0089582E0089583E0089581E008957C
:104A4000982F973068F59093E900981739F0709196
:104A5000EC002091ED005091F00003C0242F762F40
:104A600050E021FD02C09F5FECCF3091EB003E7F14
:104A70003093EB003091ED003D7F3093ED003091AD
:104A8000EB0031603093EB007093EC002093ED006D
:104A90005093F0002091EE0027FDE5CF80E00895CF
:104AA0008F708093E90081E0089580911F0387FF54
:104AB00011C08091E80082FD05C080911E03811124
:104AC000F8CF11C08091E8008B770BC080911E0356
:104AD000882349F08091E80080FFF8CF8091E800BA
:104AE0008E778093E80008952091E4003091E500EE
:104AF00095E64091EC00842F817040FF23C08091A7
:104B0000E80080FD1DC080911E03882399F0853048
:104B100099F08091EB0085FD11C04091E400509127
:104B2000E5002417350729F3915011F09A01E1CFE0
:104B300084E0089582E0089583E0089581E0089577
:104B400080E008954091E80042FFDDCF08950E9483
:104B500015260E941D26E0EEF0E0808181608083B2
:104B6000E8EDF0E080818F77808319BCA7EDB0E09D
:104B70008C918E7F8C9380818F7E808310921D0319
:104B800008950F931F93CF93DF930E9415260E94E1
:104B90001D26C8EDD0E088818F7788838881806862
:104BA000888388818F7D888319BC10921E031092A0
:104BB0001A0310921C0310921B0300EE10E0F80180
:104BC00080818B7F808388818160888342E060E080
:104BD00080E00E942025E1EEF0E080818E7F8083DE
:104BE000E2EEF0E080818160808380818860808354
:104BF000F80180818E7F8083888180618883DF9146
:104C0000CF911F910F910895E8EDF0E080818F7EA4
:104C10008083E7EDF0E080818160808384E082BF63
:104C200081E080931D030C94C125E8EDF0E08081C4
:104C30008E7F80831092E20008951092DA00109225
:104C4000E10008951F920F920FB60F9211242F9337
:104C50003F934F935F936F937F938F939F93AF9304
:104C6000BF93EF93FF938091E10082FF0BC080918F
:104C7000E20082FF07C08091E1008B7F8093E1001A
:104C80000E9498288091DA0080FF1FC08091D80090
:104C900080FF1BC08091DA008E7F8093DA008091C4
:104CA000D90080FF0DC080E189BD82E189BD09B4D2
:104CB00000FEFDCF81E080931E030E94C92105C044
:104CC00019BC10921E030E94D7218091E10080FF41
:104CD00019C08091E20080FF15C08091E2008E7FB4
:104CE0008093E2008091E20080618093E2008091F5
:104CF000D80080628093D80019BC85E080931E03A1
:104D00000E94DB218091E10084FF30C08091E200AD
:104D100084FF2CC080E189BD82E189BD09B400FE19
:104D2000FDCF8091D8008F7D8093D8008091E100E5
:104D30008F7E8093E1008091E2008F7E8093E2007D
:104D40008091E20081608093E20080911A038823C1
:104D500011F084E007C08091E30087FD02C081E08C
:104D600001C083E080931E030E94DC218091E1005A
:104D700083FF29C08091E20083FF25C08091E1007C
:104D8000877F8093E10082E080931E0310921A03D4
:104D90008091E1008E7F8093E1008091E2008E7F20
:104DA0008093E2008091E20080618093E20042E023
:104DB00060E080E00E9420258091F0008860809370
:104DC000F0000E94DA21FF91EF91BF91AF919F9186
:104DD0008F917F916F915F914F913F912F910F90A4
:104DE0000FBE0F901F9018951F920F920FB60F9243
:104DF00011242F933F934F935F936F937F938F93E0
:104E00009F93AF93BF93CF93DF93EF93FF93C091A3
:104E1000E900CF708091EC00D82FD17080FDD0E8F0
:104E20001092E9008091F000877F8093F0007894E1
:104E30000E9438271092E9008091F00088608093EA
:104E4000F000CD2BCF70C093E900FF91EF91DF917F
:104E5000CF91BF91AF919F918F917F916F915F9112
:104E60004F913F912F910F900FBE0F901F9018956B
:104E70001F93CF93DF93CDB7DEB7AA970FB6F89401
:104E8000DEBF0FBECDBFEFE1F3E08091F100819373
:104E900023E0E732F207C9F70E94F2218091E8008F
:104EA00083FF2EC180911F0390912003492F50E072
:104EB0004A30510508F024C1FA01E556FF4F0C9421
:104EC000DC28803821F0823809F01AC108C08091AE
:104ED0001B0390911C03992389F082600FC080917D
:104EE00023038F70873008F00BC18093E900809115
:104EF000EB0085FB882780F91092E9009091E8008B
:104F0000977F9093E8008093F1001092F100D1C058
:104F1000282F2D7F09F0F4C0882319F0823061F02A
:104F2000EFC080912103813009F0EAC0933009F08D
:104F300080E080931C032EC08091210381112AC040
:104F4000809123038F702FEF280F263008F0D8C0F0
:104F50008093E9002091EB0020FF1CC0933021F4E6
:104F60008091EB00806214C09091EB00906190936F
:104F7000EB0021E030E0A90102C0440F551F8A95E3
:104F8000E2F74093EA001092EA008091EB0088601B
:104F90008093EB001092E9008091E800877F809376
:104FA000E8000E945525ACC08111AAC010912103D0
:104FB0001F778091E3008078812B8093E3008091BC
:104FC000E800877F8093E8000E9455258091E800E3
:104FD00080FFFCCF8091E30080688093E300111193
:104FE00002C082E001C083E080931E0389C0805824
:104FF000823008F085C080912103909122038C3D7E
:1050000053E0950779F583E08A838AE289834FB775
:10501000F894DE01139620E03EE051E2E32FF0E049
:1050200050935700E49120FF03C0E295EF703F5F7B
:10503000EF708E2F90E0EA3010F0C79601C0C09656
:105040008D939D932F5F243149F74FBF8091E800E6
:10505000877F8093E8006AE270E0CE0101960E94AB
:10506000612416C06091230370912403AE014F5F49
:105070005F4F0E943C23BC01892B09F441C09091F1
:10508000E800977F9093E80089819A810E94BF246D
:105090008091E8008B778093E80032C0803881F5FA
:1050A0008091E800877F8093E80080911A038093C5
:1050B000F1008091E8008E7772CF811121C080913C
:1050C00021039091220399270297D4F48091E8005C
:1050D000877F8093E8008091210380931A030E94C8
:1050E000552580911A03811106C08091E30087FD48
:1050F00002C081E001C084E080931E030E94DE2193
:105100008091E80083FF0AC08091E800877F809348
:10511000E8008091EB0080628093EB00AA960FB6C6
:10512000F894DEBF0FBECDBFDF91CF911F910895E0
:105130000895CF9380911E038823A1F0C091E900C8
:10514000CF709091EC00892F817090FD80E8C82B82
:105150001092E9008091E80083FD0E943827CF700B
:10516000C093E900CF910895AA1BBB1B51E107C072
:10517000AA1FBB1FA617B70710F0A61BB70B881FE7
:10518000991F5A95A9F780959095BC01CD01089576
:1051900097FB072E16F4009407D077FD09D00E94E4
:1051A000B42807FC05D03EF4909581959F4F089553
:1051B000709561957F4F0895EE0FFF1F0590F49154
:1051C000E02D0994FC014150504030F0019006164A
:1051D000D1F73197CF010895882799270895F99934
:1051E000FECF92BD81BDF89A992780B50895A6E1BA
:1051F000B0E044E050E00C942929A8E1B0E042E09E
:1052000050E00C942929262FF999FECF92BD81BD3B
:10521000F89A019700B4021639F01FBA20BD0FB6F4
:10522000F894FA9AF99A0FBE08950396272F0E94D0
:1052300004290E940329252F0E940429242F0C945D
:1052400004290196272F0E9404290C940329DC01CC
:10525000CB01FC01F999FECF06C0F2BDE1BDF89A81
:10526000319600B40D9241505040B8F70895F8942B
:02527000FFCF6E
:10527200010204040401191A1B1C1D1E1F202122F5
:10528200CE010383400000010440000001007C21A4
:1052920081217F21C82180210130313233F0F10098
:1052A20001020202020606060909090909090F0F8D
:1052B2000F0F0F0F15151518191919191919191991
:1052C2001919232402030200000100010101010156
:0452D20000010100D6
:00000001FF
